:020000040000fa
:080000000002040000000000f2
:020000040000fa
:04000800da03000017
:020000040000fa
:04000c001c040000d0
:020000040000fa
:040010005c0400008c
:020000040000fa
:04001400fa030000eb
:020000040000fa
:040018003c040000a4
:020000040000fa
:04001c00fc050000df
:020000040000fa
:040020007c0400005c
:020000040000fa
:04002400fc050000d7
:020000040000fa
:04002800fc050000d3
:020000040000fa
:04002c00c605000005
:020000040000fa
:04003000fc050000cb
:020000040000fa
:04003400fc050000c7
:020000040000fa
:04003800fc050000c3
:020000040000fa
:04003c00fc050000bf
:020000040000fa
:04004000fc050000bb
:020000040000fa
:04004400fc050000b7
:020000040000fa
:04004800fc050000b3
:020000040000fa
:04004c00fc050000af
:020000040000fa
:04005000fc050000ab
:020000040000fa
:04005400fc050000a7
:020000040000fa
:04005800fc050000a3
:020000040000fa
:04005c00fc0500009f
:020000040000fa
:04006000fc0500009b
:020000040000fa
:04006400fc05000097
:020000040000fa
:04006800fc05000093
:020000040000fa
:04006c00fc0500008f
:020000040000fa
:04007000fc0500008b
:020000040000fa
:04007400fc05000087
:020000040000fa
:04007800fc05000083
:020000040000fa
:04007c00fc0500007f
:020000040000fa
:04008000fc0500007b
:020000040000fa
:04008400fc05000077
:020000040000fa
:04008800fc05000073
:020000040000fa
:04008c00fc0500006f
:020000040000fa
:04009000fc0500006b
:020000040000fa
:04009400240500003f
:020000040000fa
:04009800c60400009a
:020000040000fa
:04009c00fc0500005f
:020000040000fa
:0400a000fc0500005b
:020000040000fa
:0400a400fc05000057
:020000040000fa
:0400a800fc05000053
:020000040000fa
:0400ac00fc0500004f
:020000040000fa
:0400b000fc0500004b
:020000040000fa
:0400b400fc05000047
:020000040000fa
:0400b800fc05000043
:020000040000fa
:0400bc00fc0500003f
:020000040000fa
:0400c000fc0500003b
:020000040000fa
:0400c400fc05000037
:020000040000fa
:0400c800fc05000033
:020000040000fa
:0400cc00fc0500002f
:020000040000fa
:0400d000fc0500002b
:020000040000fa
:0400d400fc05000027
:020000040000fa
:0400d800fc05000023
:020000040000fa
:0400dc00fc0500001f
:020000040000fa
:0400e000fc0500001b
:020000040000fa
:0400e400fc05000017
:020000040000fa
:0400e800fc05000013
:020000040000fa
:0400ec00fc0500000f
:020000040000fa
:0400f000fc0500000b
:020000040000fa
:0400f400fc05000007
:020000040000fa
:0400f800fc05000003
:020000040000fa
:0400fc00fc050000ff
:020000040000fa
:04010000fc050000fa
:020000040000fa
:04010400fc050000f6
:020000040000fa
:04010800fc050000f2
:020000040000fa
:04010c00fc050000ee
:020000040000fa
:04011000fc050000ea
:020000040000fa
:04011400fc050000e6
:020000040000fa
:04011800fc050000e2
:020000040000fa
:04011c00fc050000de
:020000040000fa
:04012000fc050000da
:020000040000fa
:04012400fc050000d6
:020000040000fa
:04012800fc050000d2
:020000040000fa
:04012c00fc050000ce
:020000040000fa
:04013000fc050000ca
:020000040000fa
:04013400fc050000c6
:020000040000fa
:04013800fc050000c2
:020000040000fa
:04013c00fc050000be
:020000040000fa
:04014000fc050000ba
:020000040000fa
:04014400fc050000b6
:020000040000fa
:04014800fc050000b2
:020000040000fa
:04014c00fc050000ae
:020000040000fa
:04015000fc050000aa
:020000040000fa
:04015400fc050000a6
:020000040000fa
:04015800fc050000a2
:020000040000fa
:04015c00fc0500009e
:020000040000fa
:04016000fc0500009a
:020000040000fa
:04016400fc05000096
:020000040000fa
:04016800fc05000092
:020000040000fa
:04016c00fc0500008e
:020000040000fa
:04017000fc0500008a
:020000040000fa
:04017400fc05000086
:020000040000fa
:04017800fc05000082
:020000040000fa
:04017c00fc0500007e
:020000040000fa
:04018000fc0500007a
:020000040000fa
:04018400fc05000076
:020000040000fa
:04018800fc05000072
:020000040000fa
:04018c00fc0500006e
:020000040000fa
:04019000fc0500006a
:020000040000fa
:04019400fc05000066
:020000040000fa
:04019800fc05000062
:020000040000fa
:04019c00fc0500005e
:020000040000fa
:0401a000fc0500005a
:020000040000fa
:0401a400fc05000056
:020000040000fa
:0401a800fc05000052
:020000040000fa
:0401ac00fc0500004e
:020000040000fa
:0401b000fc0500004a
:020000040000fa
:0401b400fc05000046
:020000040000fa
:0401b800fc05000042
:020000040000fa
:0401bc00fc0500003e
:020000040000fa
:0401c000fc0500003a
:020000040000fa
:0401c400fc05000036
:020000040000fa
:0401c800fc05000032
:020000040000fa
:0401cc00fc0500002e
:020000040000fa
:0401d000fc0500002a
:020000040000fa
:0401d400fc05000026
:020000040000fa
:0401d800fc05000022
:020000040000fa
:0401dc00fc0500001e
:020000040000fa
:0401e000fc0500001a
:020000040000fa
:0401e400fc05000016
:020000040000fa
:0401e800fc05000012
:020000040000fa
:0401ec00fc0500000e
:020000040000fa
:0401f000fc0500000a
:020000040000fa
:0401f400fc05000006
:020000040000fa
:0401f800fc05000002
:020000040000fa
:0401fc00fc050000fe
:020000040000fa
:04020000fc050000f9
:020000040000fa
:04020400fc050000f5
:020000040000fa
:04020800fc050000f1
:020000040000fa
:04020c00fc050000ed
:020000040000fa
:04021000fc050000e9
:020000040000fa
:04021400fc050000e5
:020000040000fa
:04021800fc050000e1
:020000040000fa
:04021c00fc050000dd
:020000040000fa
:04022000fc050000d9
:020000040000fa
:04022400fc050000d5
:020000040000fa
:04022800fc050000d1
:020000040000fa
:04022c00fc050000cd
:020000040000fa
:04023000fc050000c9
:020000040000fa
:04023400fc050000c5
:020000040000fa
:04023800fc050000c1
:020000040000fa
:04023c00fc050000bd
:020000040000fa
:04024000fc050000b9
:020000040000fa
:04024400fc050000b5
:020000040000fa
:04024800fc050000b1
:020000040000fa
:04024c00fc050000ad
:020000040000fa
:04025000fc050000a9
:020000040000fa
:04025400fc050000a5
:020000040000fa
:04025800fc050000a1
:020000040000fa
:04025c00fc0500009d
:020000040000fa
:04026000fc05000099
:020000040000fa
:04026400fc05000095
:020000040000fa
:04026800fc05000091
:020000040000fa
:04026c00fc0500008d
:020000040000fa
:04027000fc05000089
:020000040000fa
:04027400fc05000085
:020000040000fa
:04027800fc05000081
:020000040000fa
:04027c00fc0500007d
:020000040000fa
:04028000fc05000079
:020000040000fa
:04028400fc05000075
:020000040000fa
:04028800fc05000071
:020000040000fa
:04028c00fc0500006d
:020000040000fa
:04029000fc05000069
:020000040000fa
:04029400fc05000065
:020000040000fa
:04029800fc05000061
:020000040000fa
:04029c00fc0500005d
:020000040000fa
:0402a000fc05000059
:020000040000fa
:0402a400fc05000055
:020000040000fa
:0402a800fc05000051
:020000040000fa
:0402ac00fc0500004d
:020000040000fa
:0402b000fc05000049
:020000040000fa
:0402b400fc05000045
:020000040000fa
:0402b800fc05000041
:020000040000fa
:0402bc00fc0500003d
:020000040000fa
:0402c000fc05000039
:020000040000fa
:0402c400fc05000035
:020000040000fa
:0402c800fc05000031
:020000040000fa
:0402cc00fc0500002d
:020000040000fa
:0402d000fc05000029
:020000040000fa
:0402d400fc05000025
:020000040000fa
:0402d800fc05000021
:020000040000fa
:0402dc00fc0500001d
:020000040000fa
:0402e000fc05000019
:020000040000fa
:0402e400fc05000015
:020000040000fa
:0402e800fc05000011
:020000040000fa
:0402ec00fc0500000d
:020000040000fa
:0402f000fc05000009
:020000040000fa
:0402f400fc05000005
:020000040000fa
:0402f800fc05000001
:020000040000fa
:0402fc00fc050000fd
:020000040000fa
:04030000fc050000f8
:020000040000fa
:04030400fc050000f4
:020000040000fa
:04030800fc050000f0
:020000040000fa
:04030c00fc050000ec
:020000040000fa
:04031000fc050000e8
:020000040000fa
:04031400fc050000e4
:020000040000fa
:04031800fc050000e0
:020000040000fa
:04031c00fc050000dc
:020000040000fa
:04032000fc050000d8
:020000040000fa
:100400002fa622000eff27000e018800000020000a
:100410000000e000020032000001200020028800fd
:1004200014000700130207000000e00003003a0078
:100430004068230001002000020037000000200077
:1004400001002000810f70004220ae000f00070065
:10045000000020000000e0004220ae00000002008a
:100460000000000032390200000000000040da0005
:100470000000fe0040af20000000e000020032005b
:10048000002020009001880000000600a1028800e2
:10049000800478000000eb001f003700e284440075
:1004a00054a0b4009905ba00e284440054a0b400fa
:1004b0009906ba00e284440054a0b4000006eb00a0
:1004c000476fde00fd07b200ae018800636ce100fb
:1004d00003003a000ad801000000eb000e003700cc
:1004e000606ce10008003a00004deb000a05e800ee
:1004f000020039003420ec000af0a0008b05e9006e
:10050000f9ff3e00040037006168e100010032009d
:100510000086eb000b00070019c7ba001905ba00e6
:100520000e04e00003003a000a00e000dbff3a009e
:1005300000000600fe07b200ae0288008a047800c0
:10054000f5ff37000cd0a300e20f4d001c003b006c
:1005500089027800354dba000a05e800020039002a
:100560003420ec000af0a0008b05e9000f003200f7
:10057000254dba000a05e800020039003420ec00dd
:100580000af0a0008b05e900080032000c00e00032
:100590000600320015cdba000a05e8000200390055
:1005a0003420ec000af0a0008b05e9008984e80003
:1005b00054a0b4000b00e000e2ff3a000000060087
:1005c0009902ba00055d78008b05e900f7ff32005b
:1005d000c82ade00055d78008b05e900f3ff3200d4
:1005e0000c00e000f1ff320019ddba00eeff370029
:1005f0006100e10001003200100005005400f80025
:1006000050102000a002880000f927001000ba0056
:100610005400f9000700260000f0a6008703d1006f
:100620000703780001c4fe000003eb000120200056
:100630009101880001842c00111303008703e90055
:10064000fdff3a0000f0a7000000050000f0a00048
:1006500080c4fe0086037800f3ff37000408200002
:10066000010037000002eb006100e10001003200f0
:10067000100005003200f8003400f8008102780014
:10068000930188003200be000100e0000c0032003f
:100690000470a70000f0a00032037800c733de002a
:1006a000848343004220af008703e800a70188004d
:1006b000f607b2007f30e100040032002000200085
:1006c0003400f9003200f900000006008100e90062
:1006d0000500e00003003a00018009003210030029
:1006e000e8ff37000180090032900300d561ae00b9
:1006f000e4ff370030002000f1ff370050052000f4
:10070000b00e8800a00a2000b00e8800d3e1a80037
:100710000000060050052000b00e8800a00a20004e
:10072000b00e8800d3e1a900000006009438040050
:10073000000000000a3a0400000000005e3a0400d5
:10074000000000003e3a040000000000c03b04002e
:1007500000000000463c0400000000008a45040040
:1007600000000000b845040000000000ce45040071
:1007700000000000e445040000000000fa45040009
:10078000000000001046040000000000b238040021
:10079000000000008044040000000000ee1004008f
:1007a000000000009a0b040000000000e6060400b0
:1007b000000000003600f800809fbe00829fbe004f
:1007c000849fbe00869fbe000000fa00c028a900da
:1007d0000000eb00062207000080fa004f03be0075
:1007e0004f02be004f01be004f00be003600f900b0
:1007f000004006003600f800809fbe00829fbe00c9
:10080000849fbe00869fbe000000fa00ff21070003
:10081000c048a90010002000f52107000080fa0060
:100820004f03be004f02be004f01be004f00be008e
:100830003600f900004006003600f800809fbe0038
:10084000829fbe00849fbe00869fbe000000fa000b
:10085000c068a90020002000e52107000080fa0000
:100860004f03be004f02be004f01be004f00be004e
:100870003600f900004006003600f800809fbe00f8
:10088000829fbe00849fbe00869fbe000000fa00cb
:10089000c088a90030002000d52107000080fa00a0
:1008a0004f03be004f02be004f01be004f00be000e
:1008b0003600f900004006003600f800809fbe00b8
:1008c000829fbe00849fbe00869fbe000000fa008b
:1008d000c608a90070002000c52107000080fa00aa
:1008e0004f03be004f02be004f01be004f00be00ce
:1008f0003600f900004006003600f800809fbe0078
:10090000829fbe00849fbe00869fbe000000fa004a
:100910002146800000102000008060000000e00000
:1009200003003200c508a900c0002000b021070064
:100930002146800000022000008060000000e000ee
:1009400003003200c4a8a90090002000a8210700dd
:1009500020468000700060000000e00003003200cc
:10096000c488a900a0002000a12107002046800023
:10097000610060000000e00003003200c408a9002c
:10098000b00020009a210700ffff37003600f80072
:10099000809fbe00829fbe00849fbe00869fbe00d7
:1009a0000000fa000388a900018080001080800008
:1009b000808f500014003a002388a90040808000f6
:1009c0000000e00019003200418080000000eb00d0
:1009d00001000100150037000080800081442200e2
:1009e00000804000104078000080fb0080138800e9
:1009f000008080008000e800f01f20000080600080
:100a000000808800010037000000000030138000e3
:100a1000700060000000e00004003a0001808000e7
:100a200010808000808f5000ebff3a000080fa00b9
:100a30004f03be004f02be004f01be004f00be007c
:100a40003600f900004006003600f800809fbe0026
:100a5000829fbe00849fbe00869fbe000400fa00f5
:100a60000368a90020138000620060000000e0001d
:100a7000360032006422a900408080000000e000bf
:100a8000340032004180800020002000010001007d
:100a90003300370060138000004f78002180800011
:100aa00030062000808f50000a003e002080800029
:100ab00081642200808040009e4878000000e800a9
:100ac000208088001e407800e14f40000a0032007c
:100ad0001c0037000430ef000a70ef0040808000f7
:100ae0000000e0001d003200418080001000200066
:100af000010001001a0037000ad0bf000040e800e2
:100b00000af0b7000ad0bf00e34f500014003a00cb
:100b10002080800063005000100798003080800023
:100b20000000e00004003200328080009e0090004f
:100b300080642200020001000430ef000a70ef0020
:100b4000070037000a70ef000500370000000000c2
:100b50000300370000000000010037000000000023
:100b600030138000620060000000e000c9ff320026
:100b70000080fa004f03be004f02be004f01be00ce
:100b80004f00be003600f900004006003600f800b5
:100b9000809fbe00829fbe00849fbe00869fbe00d5
:100ba0000000fa00b08080000000e0000200320087
:100bb000b080800000000100f0a522001040780005
:100bc0008040e800f0a5220001487800e0a522005e
:100bd00011c0b300014878000028a9000080fa0085
:100be0004f03be004f02be004f01be004f00be00cb
:100bf0003600f900004006000040da000000fe0068
:100c00000a00fa0011002000b1bf9f00c0bf9f0082
:100c10006a805700b60607004fb897000080fa00b8
:100c2000000006000800fa0010079800210798004d
:100c300032079800be009000010f780007003700cf
:100c40002e00900010407800ae0090008100e80077
:100c500021079800471e07001e0fe9001e007800bc
:100c60000000e000f6ff3a003e0090000080fa002d
:100c700000000600000005000000fa00688157002f
:100c8000cfb89700f04e8100100078006302070093
:100c90000080fa000000060080000700d90007006d
:100ca0000f0107008b010700b3010700ff020700d7
:100cb000aa0237000000fa0068815700cfb89700f9
:100cc000f04e810010007800540207000080fa0006
:100cd0000000060071000700ca0007007d01070040
:100ce000a5010700fe000700f00207009b02370085
:100cf0000000fa0068815700cfb89700f04e8100dd
:100d000010007800450207000080fa00000006008d
:100d1000f30037000000fa00e88157004fb9970050
:100d20004c0207000080fa00000006005b0007008c
:100d3000b4000700ea000700660107008e01070003
:100d4000da020700850237000000fa00e881570048
:100d50004fb997003f0207000080fa00000006002c
:100d60004e000700a70007005a0107008201070094
:100d7000db000700cd020700780237008001780011
:100d800002003700b15978000201e9000200e000da
:100d9000fcff3a0000000600f14e8100910078004f
:100da0006a050700110020000000e0000500350082
:100db000f04e810090007800a0002000100607008f
:100dc000cf00de000100ea0000000600000006007f
:100dd000409e220000000600fdff0700104f890022
:100de000004f8900000006008000780004003700f2
:100df0003104e00002003a0000005100000006004b
:100e0000010178000108a300f9ff3a008101780090
:100e100031017800f4ef2f00020242000281ea0063
:100e2000020162000408280004016100f7ff32009b
:100e300083007800010178003104e000fdff3a00f2
:100e400000005100000006008001eb000200e000fd
:100e5000100032000002780001037800b4417800ed
:100e60000304e00008003200b14278000504e0000d
:100e70000500320082034000848f530002003200dc
:100e800085cf5100f4ff32008381fb001680fb0008
:100e9000808151000300780000000600ec874700c5
:100ea000889fbe008a9fbe008c9fbe008e1f780068
:100eb00000067800010478001807900028059000cb
:100ec00098067800cdb79f00b80590003202be00aa
:100ed0002203be000400be000601be004f18de0063
:100ee0006011b8008000eb00d0b79f00e1b79f0011
:100ef000f2b79f0083bf9f00800478000900e000e4
:100f0000060032006000b8006011b8000402500012
:100f10008582580006035900878359000e00e000bf
:100f2000020035000d10a100cdb79f000900e000c0
:100f300005003a004fb097000028a30002003a00d5
:100f40000038a300020032008a00e90001003700e7
:100f50008a007800f8815700a2002000080078007d
:100f6000890007000900e00003003a00cfb09700b5
:100f70000128a300080032000000e90000814500bc
:100f8000b1c2b3000900e00001003200d1c2b300d9
:100f900001497800060037000138a3000400320040
:100fa0000000e9008080450002c2b300824878005a
:100fb000480190000201e9000001510080804500d5
:100fc0004fb297008a0178000c0078008202070077
:100fd0009c0090000188a30004003200980090005b
:100fe000810f500001003d00010078004f0778009c
:100ff0004f06be004f05be004f04be00cf00b1003b
:10100000000006000200fa00889fbe008a9fbe0012
:101010008005780001047800020078001801900033
:101020002805900098007800b1bf9f00b804900098
:101030000200e000020035000110a100b1bf9f00d6
:10104000ea815700820020008a0078003002be004a
:101050002003be00080078004b0007003fb997004e
:10106000f0006100040032000000e90080804400cc
:1010700002c3b300824878003fb99700e8006100de
:10108000040032000000e9008080440002c2b30086
:1010900082487800480190000201e90000015100f7
:1010a000808044003fba97008a0178000b007800e6
:1010b000490207009b0090000188a3000400320051
:1010c00098009000810f500001003d000100780061
:1010d0004f05be004f04be000080fa00000006006d
:1010e000ea874700889fbe008a9fbe008e1f780057
:1010f00000047800030078007287570084e226001d
:1011000055c72600049fbe00c3962200030f780037
:101110006c875700004feb0011059000a104900070
:10112000910578000200e00002003200020778001a
:1011300001003700728757000000e00002003a000b
:101140000e00780028ff07000a00e00003003500c9
:101150008a0f5000010036000a0078000b02780068
:1011600089017800000178008e007800080078007e
:10117000190207004f0778004f05be004f04be005c
:10118000af00b10000000600f4874700889fbe0052
:101190008a9fbe008c9fbe008e1f78000605be0091
:1011a0000404be0081bf9f0082b79f00f3b79f0079
:1011b000b0009000e1b79f001301780092b79f0044
:1011c00090069000400090000000e90000067800c2
:1011d0000d00e00001003d001d002000efb1970070
:1011e000008041000048eb001e0020001f00370077
:1011f0000c06e9000fb09700cf80de006109b9004e
:10120000a0b79f00b1b79f00c2b79f00d3b79f00a0
:101210000203be000002be000800be000a01be00bc
:101220000f06070000077800efb097000c80400021
:1012300003c3b300034847008d06e9000fb89700c9
:101240000000e90080bf9f002fb29700bfb2970057
:101250004fb39700dfb397000800be000a01be003d
:10126000f80507000205be000004be000c00e00007
:101270000d003400e00f5400e08f5c00e00f5d00d3
:10128000e08f5d00daff3a000d00e000d8ff3c007f
:101290008fb897000100e000030034001fb19700f1
:1012a0000218a300d2ff3a000e00e00002003a004c
:1012b000ffb197001340a1000c0078004f077800a1
:1012c0004f06be004f05be004f04be004f01b100e7
:1012d000000006000200fa00889fbe008a9fbe0040
:1012e00000057800010478000200780018019000e1
:1012f000a804900098007800b1bf9f00b805900046
:101300000200e000020035000110a100b1bf9f0003
:10131000ea815700a2002000890078003002be0058
:101320002003be000800780097ff070048019000e6
:101330000201e90000015100808045003fba97009a
:10134000890178000a007800a30107009a00900044
:101350000188a3000400320098009000810f500023
:1013600001003d00010078004f05be004f04be00a3
:101370000080fa0000000600fa874700889fbe0040
:101380008a9fbe008c9fbe008e1f7800800478006c
:10139000010478008205780018019000280590006b
:1013a00018077800b80090000200e0000200350045
:1013b0000e10a1000100370012002000700067002d
:1013c000e0b79f00090032003b02be002b03be00c5
:1013d000e00f5200e08f5a00e00f5b00e08f5b00ef
:1013e000020032008a86e900010037008a06780090
:1013f000e8026700f5b79f00010032008d06e900a2
:101400003b02be002b03be00e4af9f00f5af9f0080
:1014100086b79f0097b79f00480690000c06e9002a
:101420000c8040000048eb00efb297007fb29700bd
:101430008903780081047800d8af9f000204780007
:101440008bbf9f008a057800034578002b0037008a
:101450000c06e9006fab97006f006300e90f5000c6
:1014600002003c000003b000010037007005b0002e
:101470000a03fb001604b100f90f53000c003e00f4
:10148000000378000650a0001606b100f90f5300c3
:1014900007003e00b4b79f00a5b79f00c7b79f00e5
:1014a00069040700cfb39700afb297003fb297002f
:1014b0000c834400004b78000804e9008d06e90025
:1014c0006fa89700ffa897000fb197009fb19700f2
:1014d000460020008301d1000281d3008180d30027
:1014e0000080d3000603e900faff3a00e0af9f0056
:1014f000f1af9f0082b79f0093b79f00e10f5600a6
:101500000f0034006fa89700ffa897000fb1970055
:101510009fb19700e00f5000e08f5800e00f590096
:10152000e08f5900caff3a000800e000c8ff3c0005
:101530000d00e000020034000e18a300c4ff3a00c2
:1015400089007800f4b79f00870478005fac9700ab
:101550008a4178000b0578008fbd97000500e000f8
:10156000120032003b02be002b03be00e4af9f001e
:10157000f5af9f0086b79f0097b79f00e00f52001e
:10158000e08f5a00e00f5b00e08f5b000700320045
:101590000c06e9000c804000034878000c06e900c6
:1015a0000c80400002c3b30002487800ffb29700ed
:1015b0000500e000040032000c06e9000c80400049
:1015c00002c2b30002487800480190000201e9001d
:1015d0000c0151008c8040000e0278008a017800d6
:1015e00009007800fc000700990090000188a30022
:1015f0000400320098009000810f500001003d006f
:10160000010078004f0778004f06be004f05be006e
:101610004f04be00af01b100000006000200fa0056
:10162000881f780000047800e2bf9f0064815700a3
:1016300008007800aa020700980090000148a30063
:10164000010032000080eb004f0478000080fa00b7
:1016500000000600f28747008e1f78000202780023
:10166000030178000000e00002003200000778006b
:1016700001003700728757008002eb000100e00094
:10168000010032008102e900708057000600090065
:101690000018eb000080eb0080bf9f0023102000ab
:1016a00093bf9f00aebf9f00b1bf9f00c5bf9f000b
:1016b0000100e00003003d00b10420000153890057
:1016c00006003700004feb00eebf9f00debf9f001b
:1016d0008400780070805700d0ff07004f07780023
:1016e0002f01b10000000600889fbe0000047800b2
:1016f0004800900082047800808f5400010036007a
:101700008004780009017800580090009bfd0700d4
:10171000580090000900400050049800c800900054
:1017200089845000490498000048eb004f04be0033
:1017300000000600100078003afd3700900190008c
:101740000388a30001003200e7ff37000348a3002d
:1017500001003a00f7ff070000000600840820009f
:10176000848f50001d0032000d003c001408200042
:10177000848f50002700320002003c000408200043
:101780000400370024082000848f50003400320009
:1017900044082000848f500043003a003600370090
:1017a000040a2000848f50002700320004003c000f
:1017b00004092000848f50003b003a0028003700c5
:1017c000020c2000828f50002f003200020f2000f8
:1017d000828f500034003a002b0037009380e900dc
:1017e0000200e00005003200810978001102fb00d0
:1017f000cfa2de00612bb9002800370081097800f4
:10180000114278000482fb008002eb006033b800d4
:101810002200370013027800e40052000200e000ca
:1018200005003200810978001102be004fabde00d6
:101830008603780019003700810978001102be0084
:101840006033b800150037009380e9008109780003
:1018500011027800cfa2de00612bb9000f00370023
:1018600093027800e8805200810978003102be00be
:101870002103be00090037009380e9000200e00068
:1018800002003200f1ff37009380e90081097800ff
:10189000110278008002eb006033b8000498be00ab
:1018a0000690be001000050000000500440820005e
:1018b000848f50002500320008003c0014082000ee
:1018c000848f50001400320024082000848f5000c0
:1018d00024003200040820000c0037000409200016
:1018e000848f50001f00320004003c008408200058
:1018f000848f500024003a000e003700040a2000b4
:10190000848f500011003200040c2000848f50009e
:101910001d003a000d0037009380e900810978002e
:101920009100780001087800cf91de008288be0027
:10193000140037009380e900810978009100780055
:1019400001087800824878000e0037009380e90093
:1019500081097800910078000108780082087800f9
:10196000080037009380e900810978009100780031
:10197000010878006112b900612bb9008498be009b
:101980008690be001000050000000500889fbe0084
:10199000000478004800900082047800808f540092
:1019a000010036008004780009017800580090009a
:1019b000f2fc070058009000090040005004980015
:1019c000c800900089845000490498000048eb004a
:1019d0004f04be0000000600f2874700889fbe004b
:1019e0008a9fbe008c9fbe008e1f78008004780006
:1019f0000105780002047800830578006107620021
:101a000002003a008b0f54000800390008017800ea
:101a10008a0078000900780048ff07008b0f540007
:101a200002003900880578001e003700088655003e
:101a30000c017800f00f5600010036000201200072
:101a4000010220007e805700720207008c06780099
:101a50000500370002012000fe80570009007800d1
:101a600036ff0700f0865600ef8f5600f9ff3e0064
:101a70004461de0000ff2f008091b9000c0141009d
:101a8000fe805700090078002cff07000e00e000e0
:101a900004003a00080178008a0078000900780004
:101aa00026ff07000b0078004f0778004f06be00a6
:101ab0004f05be004f04be002f01b100000006001c
:101ac000000005000000050000000500000178008e
:101ad0000040eb008080fb008180400083a4220056
:101ae00081814100134278000404e00004003a00c0
:101af00090a4220081004000114078000000060000
:101b000092017800934f520005003a0090a4220001
:101b100081004000114078000309e800010037000f
:101b20000040e800ea4f5000eaff360000000600df
:101b3000f6874700889fbe008a9fbe008c9fbe002c
:101b40008e1f780000057800010478008305780076
:101b5000040678000000eb00c0b79f008080eb0017
:101b6000d1b79f00e0b79f00f2b79f0000082000a8
:101b700080bf9f0098007800010078008004eb008f
:101b8000010037008904e800304178000204e000d9
:101b90000300320053c2b300834f5100f9ff3a00f3
:101ba0000900e00004003200090178000a00780012
:101bb000e2fe0700188c44001807780050c2b300fa
:101bc0009e4f10003f013a000e07e8000e0c78000f
:101bd00010003700cfb097000100a0000b003700c5
:101be000cfb097000110a00008003700cfb09700d9
:101bf0000120a00005003700cfb097000130a00001
:101c000002003700cfb097000140a000c1b79f008d
:101c1000000ce8001800780090407800b2c2b300d1
:101c200082cf5000f1ff320007003c0002c2b30037
:101c300082cf5000f0ff320032c2b30082cf50009a
:101c400007003a00efff3700d2c2b30082cf500046
:101c5000e0ff320002c3b30082cf5000e0ff320049
:101c6000a2c2b30082cf50000d003a00000ce80081
:101c70001c80e900000e780010007800e0b79f009b
:101c80000000e0000f003d00cfb097000100a2006f
:101c9000c1b79f000000ea00e0b79f0009003700cd
:101ca00084010700e0b79f0001003700000ce80046
:101cb000180078009000fb000103b100e98f50008c
:101cc000faff36004fb097000008a3000200320070
:101cd0000010a100c0b79f0018007800e1c2b30057
:101ce00090cf100016003a008000eb00d1b79f00a3
:101cf0000000e800000c7800a1c2b30090cf1000f3
:101d000006003a00000ce8001c80e900000e780094
:101d100010007800d0b79f00090037006501070068
:101d2000d0b79f0001003700000ce80018007800d1
:101d30009000fb000103b100e98f5000faff36006c
:101d40000800780061ff07008046780018007800de
:101d50001000fb003502070091062000810f5000a3
:101d60003800320012003c0041062000810f500074
:101d7000340032000a003c0011062000810f5000a0
:101d80002000320031062000810f5000a0003200f8
:101d900051022000810f5000bc003a00b40037000f
:101da00071062000810f5000b8003c008800370009
:101db00001072000810f50005c00320007003c004a
:101dc000e1062000810f50007a003200f106200069
:101dd000810f5000ad003a00390037005107200054
:101de000810f50002700320081072000810f500032
:101df0004200320031072000810f5000a3003a005a
:101e00008f0037008d80fb000c01780000fe2f0052
:101e10000f004000170207000000e000a800320099
:101e200018007800000ce8009041780002fe2f00b6
:101e30000f014100f88057000a00780021ff0700d9
:101e40000e0037008d80fb008c017800120020000e
:101e500000fe2f000f00400040fe07000000e000e1
:101e600097003200180ce80002fe2f000f0141001d
:101e7000f88057000a00780008fc070080844400be
:101e8000900037008d80fb008c0178000001eb0092
:101e900000fe2f000f00400030fe07000000e000b1
:101ea00087003200180ce80002fe2f000f014100ed
:101eb000f88057000a00780006fd0700efff3700a2
:101ec0008d80fb008c0178000001eb0000fe2f00ec
:101ed0000f00400021fe07000000e0007800320003
:101ee000180ce80002fe2f000f014100f880570097
:101ef0000a00780043fc0700e0ff37008d80fb00fc
:101f00008c0178000001eb0000fe2f000f00400064
:101f100012fe07000000e00069003200180078009f
:101f2000000ce800904178001c0037008c0178001c
:101f30000001eb00010f200000fe2f000f00400009
:101f400006fe07000000e0005d003200180ce8000b
:101f50000fb097009fb097002fb19700bfb19700c7
:101f6000e00f5000e08f5800e00f5900e08f59005b
:101f700009003a00cfb597006fb4970000a4220083
:101f800099fb07000b0278008801780000017800b7
:101f900001a422004700370083c7b30002fe2f00d0
:101fa0000f014100f88057000a007800f2fc07009a
:101fb000b2ff37000b8144008d80fb008c0178005c
:101fc00000fe2f000f00400038fe07003c003700e5
:101fd0008d80fb000c01780000fe2f000f004000f8
:101fe000a40107000000e00035003200180078006e
:101ff000000ce8009041780002fe2f000f01410024
:10200000f88057000a007800aefe07009bff3700fb
:1020100000c8b30080cf560029003a00180ce80031
:102020001c80e900000e780010407800e0df9f007f
:1020300013002000e2fd2f000f01410008003700cf
:1020400000c8b30080cf56001d003a00180ce8000d
:102050001c80e900000e78008001eb001001780080
:10206000f88057000a0078001dfc070083ff370046
:1020700000c8b30080cf560011003a00180ce800e9
:102080004fb29700efb19700080037000e0c7800b0
:102090000000eb00c0b79f00e0b79f000080eb009e
:1020a000d0b79f000002eb008401780012002000ee
:1020b00061a422000a00780047fe07006fff370086
:1020c000180ce800090078004f0778004f06be00a2
:1020d0004f05be004f04be006f01b10000000600b6
:1020e0008200fa00889fbe008a1f780000057800f1
:1020f00082047800c13f9f000004eb00100037000d
:102100000902780088017800a2f72f000f01410032
:1021100081f72f008f8040000a00780084fe0700be
:1021200008004000880f500004003d00b00420006b
:10213000005389000084eb0004003700000478009d
:102140004f3897001004e000edff3a0008007800d7
:102150004f0578004f04be000080fa000000060022
:10216000889fbe000004be000000eb000800e000f5
:1021700018003200180090000058a3000d00320033
:10218000d800900068009000808f50000900360051
:10219000b80990000001eb00820078000800780088
:1021a00003000100d80090000080eb000100e00077
:1021b000080032000000eb00200c9800600498003a
:1021c000500498000900e000020032001800780076
:1021d0008bfa07004f04be0000000600889fbe0077
:1021e0000004be000000eb000800e0002500320003
:1021f000180090000058a30011003200d800900091
:1022000068009000808f500009003600b8099000e7
:102210000001eb0082007800080078000300010054
:10222000d80090000080eb000100e00015003200b3
:102230000000eb00200c9800600498005004980007
:10224000780a900008109000800f520006003100bc
:102250000002520011002000cfa2de00612bb90065
:1022600018007800650007000000eb0000149800db
:10227000700c98000900e00002003200180078009d
:102280005ffa07004f04be000000060080007800df
:102290001000200002022000828f50000400320053
:1022a000e9805000e48f5000010036000000eb0090
:1022b00000000600889fbe008a1f78000005780095
:1022c0000a047800984478000805e8000900fb003b
:1022d000eeff07000000e000f9ff3a00b0c2b300d3
:1022e00080cf540005003200d0c2b3008000eb0064
:1022f00080cf540005003a00020037008000eb0058
:1023000001003700110020000804e8000000eb0085
:1023100003003700ea00b900020050000003b000db
:102320003801fb0003fd2f0082814100e98f51003d
:10233000f8ff36000100e00001003a000000ea006a
:102340004f0578004f04be0000000600889fbe00c5
:102350008a1f780080047800010578000900780061
:10236000a1fa0700000478008a01780008017800cb
:1023700011002000090078000a00070080007800a2
:102380000080eb00888f500001003a000000eb0055
:102390004f0578004f04be000000060010007800d2
:1023a00020fa3700889fbe008a1f780081047800d9
:1023b0000204780089c5b9000900e00001003a0074
:1023c0000004eb000a017800800078000300780028
:1023d000d8fc0700800078008a8f5000030032008c
:1023e000050009008980d800000478000800780002
:1023f0004f0578004f04be0000000600a0fd2f002e
:10240000f1ff2f007f0007004f89de008201780076
:1024100000000600889fbe008a9fbe0080047800ee
:102420000200e0005b00320001407800814c78003f
:1024300082814400f1f99f00e20f510055003600ff
:1024400091449800a1449800e1f99f00d1f99f00c0
:10245000e60f51004f003600b1449800c1f99f00cb
:10246000e80f51004b0036000905ea0063056500de
:102470000a8444000a055100c1ff2f0001056500d0
:102480000080fb008000eb001210200013102000e1
:10249000cd000700008cbe000a01440060b99f0017
:1024a00071b99f00e80f55003a00360020049800eb
:1024b00031049800400498005104980020b99f000e
:1024c00031b99f0040b99f0051b99f00f80f5500e6
:1024d000300036006004980071049800000c9800e9
:1024e000110c9800200c9800310c9800400c9800ba
:1024f000510c980020b19f0031b19f0040b19f0066
:1025000051b19f0060b19f0071b19f0000b99f0061
:1025100011b99f0064016400780141000204440085
:10252000020555006011b8000203be000002be00a3
:102530000403be006022b8000000720081807200b7
:10254000020173008381730010003700009cbe00fd
:102550000294be0040049800510498006204980060
:1025600073049800000c9800110c9800220c98003d
:10257000330c9800400c9800510c9800620c9800a5
:10258000730c98000a02b1000802b000ff0f55005a
:10259000eeff3e00090078004f05be004f04be006c
:1025a000000006000200fa0081017800e0ff9f00b1
:1025b000930090000188a30005003200d300900032
:1025c000805878000080fb00d10198000a00370095
:1025d000120020008f80e9000300780055fc0700fe
:1025e000800078000080eb000100e0000200320073
:1025f000eff897000180fb000080fa000000060061
:10260000e8ff370002002f00f3ff2f00820f500079
:10261000838f5800040036000000ea000053890050
:102620000080eb008080eb0000000600f1fb2f0033
:1026300080804000f98f500001003e000050a00053
:1026400000000600f9ff3700f1f92f0080804000fc
:10265000f98f500001003e00f005b20000000600b6
:10266000f9ff370000000600dbf90700fdff070057
:10267000fcff3700881f7800000478000008200065
:10268000808f50001700350010082000808f500008
:102690000b00340030082000808f500011003a00f9
:1026a0009200780068805000000978003002be0077
:1026b0002003be00049cbe000694be000700370045
:1026c0009202780064805200000978001000be0079
:1026d00009000700009cbe000294be00100020000c
:1026e000010037000000eb004f04780000000600f6
:1026f00000c0da0000000600810378001d0007001a
:102700000001be006000b8000478a30013003a0086
:102710006220e10015003e000d0039008301d10068
:102720000281d3008180d3008301d1000281d300d4
:102730008180d3008301d1000281d3008180d30046
:102740000538b000c42add00f300b20083817200b6
:1027500007f0a70003f0a0000000060083ff270099
:10276000020020006110b900f9ff370003ff2700c5
:10277000f7ff3700c70ade00f107b200f50fb2001d
:1027800008003200e1cf4200020032000170a000d8
:1027900024000500810f70000100320004080500cc
:1027a00044000500810f700002003a00140005008b
:1027b0008502e9000000400081c04800fcff3b00aa
:1027c0000170a00024000500020ab900001bb90036
:1027d0000200b800810042008100430000000600b2
:1027e000889fbe008a9fbe0030044200b0844a0029
:1027f00030054b0090854b006000b1000898be008a
:102800000a90be000440e10005c8e10006d0e100e6
:1028100007d8e10002003100680040001008e8001d
:102820004f05be004f04be0000000600889fbe009a
:102830008a9fbe003004be002005be00041854006c
:1028400005985c0006185d0007985d0011002000e7
:102850000440e10005c8e10006d0e10007d8e1002e
:10286000010039008000eb00108810004f05be0009
:102870004f04be00000006001200fa00889fbe0050
:102880008a9fbe008c9fbe00e0b79f00f1b79f00fb
:1028900082bf9f0093bf9f000605be000404be00d8
:1028a0000000eb00d0b79f00c0b79f00b0b79f00fb
:1028b000a0b79f0090b79f00000678005fb1970017
:1028c000cfb09700820141003fb097000200e000c6
:1028d00004003d00370007007e805700c0ff07005e
:1028e00003003700330007007e805700cfff07004a
:1028f000dfb697000d00e0000c0035006fb29700c6
:10290000ffb297000fbb97009fbb970010002000fd
:10291000010020006011b800000272008182720084
:1029200002037300838373001b0007000c06e8009a
:1029300001042000810f5600e0ff3a000d00e00086
:1029400004003d000802be000a03be007e8057005e
:10295000a3ff07005fa897000000e00005003a0011
:102960001fb29700afb297003fb39700cfb3970065
:10297000090007006fb09700ffb097000fb99700ec
:102980009fb997004f06be004f05be004f04be0022
:102990000080fa00000006000100070000000600a9
:1029a000a4b79f00b5b79f00c6b79f00d7b79f00d9
:1029b000000006004f09de0082817100b3b79f005e
:1029c0004f01de008180400082807000a1b79f002f
:1029d0008fb097004f09de00000040000200700039
:1029e00090b79f007fa897004f01de0081804000d4
:1029f0008280700081b79f000d0007004f3ade0013
:102a00000000400004007000f0af9f0008000700c5
:102a10000402420085824a0006034b0087834b0074
:102a2000dfff07000802be000a03be000000060028
:102a30002fb29700bfb297004fb39700dfb3970054
:102a400000000600881f780018002000881f78000a
:102a500089ff07008f87e9004f0478000000060017
:102a6000801feb0084ff07008f87e900000006004d
:102a7000889fbe008a9fbe00e00f5000e08f580084
:102a8000e00f5900e08f59000c003d006044b80091
:102a90006055b8000000540081805c0002015d00b8
:102aa00083815d00180020001500070008003d002c
:102ab000180007000004eb00050037000004eb00dd
:102ac0000f00070002003d00120007001800200060
:102ad000dcff07000800e000060032006022b800ba
:102ae0006033b8000000520081805a0002015b0090
:102af00083815b004f05be004f04be00000006004e
:102b0000e00f5200e08f5a00e00f5b00e08f5b00a7
:102b1000000006006044b8006055b800040254008c
:102b200085825c0006035d0087835d00000006006f
:102b3000889fbe008a9fbe008c1f7800e00f500067
:102b4000e08f5800e00f5900e08f59000d003d0064
:102b50006044b8006055b8000000540081805c00fb
:102b600002015d0083815d001c0020000820e1005f
:102b700009a8e1000ab0e1000bb8e1000d003d003a
:102b8000080037000006eb00e00f5200e08f5a000b
:102b9000e00f5b00e08f5b0006003d006044b80082
:102ba0006055b8000402540085825c0006035d0095
:102bb00087835d00aaff07000c00e00006003200da
:102bc0006022b8006033b8000000520081805a00d3
:102bd00002015b0083815b004f0678004f05be0059
:082be0004f04be0000000600d6
:020000040000fa
:102be80072650000665f0000737400006f7000007b
:102bf80000720000656600005f73000074610000e9
:102c080072000000736500006e6400006d650000ce
:102c1800007400006f750000636800005f6a0000c0
:102c2800006300006f6d00005f730000746f0000a8
:102c380070000000636f00006d5f00007374000097
:102c480061720000006300006f640000655f0000af
:102c580063000000726500007374000000640000e7
:102c68006f650000766500006e7400007300000058
:102c7800f495000008000000fd9500000800000021
:102c880006960000060000000d96000007000000f0
:102c980015960000080000001e96000008000000bd
:102ca80027960000060000002e9600000400000091
:102cb800339600000800000070610000676500009e
:102cc8000072000065660000006300006c69000087
:102cd800636b000000670000657400000076000068
:102ce800697300000074000073770000007300002f
:102cf800657400006c6100007965000072000000d6
:102d0800646500006c660000696c000065000000e6
:102d180072650000666900006c650000006e0000c6
:102d280065770000646900007200000064650000b7
:102d38006c640000697200000072000065640000a5
:102d48006972000000660000696e00006466000099
:102d5800696c00006500000072640000666900008c
:102d68006c650000006300006f76000078000000ca
:102d78007375000062730000747200000073000035
:102d88007073000074720000007300007472000019
:102d98006c6500006e000000627400006c65000045
:102da8006e0000006164000064000000636c0000b5
:102db80065000000616400006474000000630000a6
:102dc80066670000706900006f000000706c00000a
:102dd8006179000000750000636f000070790000e1
:102de80000750000646500006c65000074650000f3
:102df80000000000609600000400000065960000d6
:102e08000300000069960000050000006f960000ae
:102e1800030000007396000003000000779600008e
:102e2800030000007b960000080000008496000064
:102e3800070000008c960000060000009396000032
:102e4800060000009a96000006000000a196000007
:102e580005000000a796000008000000b0960000da
:102e680006000000b796000004000000bc960000b1
:102e780006000000c396000005000000c996000087
:102e880006000000d096000005000000d69600005d
:102e980003000000da96000003000000de96000040
:102ea80004000000e396000006000000ea96000017
:102eb80004000000ef96000005000000f5960000f1
:102ec800070000006470000000640000696d0000e5
:102ed80000640000696d000073000000626100007a
:102ee80075640000006200006175000064730000f2
:102ef800007300006c65000065700000007400003d
:102f080068730000700000007468000075700000ad
:102f1800006200006b6300006d6400000073000035
:102f280079730000000000006697000002000000ae
:102f380069970000030000006d970000040000007e
:102f48007297000004000000779700000500000059
:102f58007d97000005000000839700000400000032
:102f680088970000040000008d970000050000000d
:102f7800939700000300000077650000706f000061
:102f880000720000657000006f00000077650000a7
:102f9800707400000072000065700000740000008a
:102fa800c097000004000000c5970000040000005e
:102fb800ca97000004000000cf970000040000003a
:102fc8006372000063720000657300007400000003
:102fd80063720000637000007574000073000000e5
:102fe80063720000637000007574000068000000e0
:102ff80063720000637000007574000075000000c3
:10300800e497000007000000ec97000007000000ac
:10301800f497000007000000fc970000070000007c
:103028006e65000077660000696c000065000000ae
:1030380074770000666900006c65000000000000fd
:1030480014980000070000001c980000060000000b
:10305800636c0000730000007069000063000000ea
:103068007069000063630000007800007069000068
:10307800630000007873000074720000006c0000a8
:10308800696e00006500000064720000617700004e
:1030980000630000697200000063000069720000ac
:1030a800730000002c980000030000003098000016
:1030b8000300000034980000040000003998000064
:1030c800040000003e98000004000000439800003f
:1030d8000400000048980000040000004d9800001b
:1030e8000300000051980000040000007274000002
:1030f80063300000007200007463000031000000bb
:1031080072740000633200000072000074630000f3
:103118003300000072740000633400000072000085
:1031280074630000350000007a9800000400000075
:103138007f9800000400000084980000040000004c
:1031480089980000040000008e9800000400000028
:103158009398000004000000766f00006c000000e7
:1031680061750000646900006f0000007669000066
:1031780064000000b098000003000000b49800004c
:1031880005000000ba980000030000002573000045
:103198002e250000733d0000256c0000640000002f
:1031a800257300002e250000733d00002225000035
:1031b8007322000000250000732c00002025000069
:1031c8007300000025730000202500007300000034
:1031d8002573000020250000732c000025640000e2
:1031e8000025000073200000257300002e25000034
:1031f800730000002573000020250000732c0000d8
:10320800257300000025000073200000222500001f
:10321800732200002c220000257300002200000009
:103228002573000020220000257300002200000002
:10323800257300002022000025730000222c0000c6
:10324800737900007330000000250000732000002f
:10325800257500002c250000752c00002575000040
:103268000025000073200000257500002c250000b3
:103278007500000025730000002500007320000081
:10328800257300002c2500006c7500000025000047
:1032980073200000257300002c250000752c000009
:1032a800257500002c25000075000000257300001e
:1032b8002025000075000000257300002022000072
:1032c80025730000222c0000257300002c25000027
:1032d8006c7500002c2500007500000025730000a7
:1032e80020250000752c0000257500002c25000005
:1032f800752c0000257500002c25000075000000c5
:103308002573000020250000752c0000257500009d
:103318002c250000752c0000257500002c250000c8
:10332800752c0000257500002c2500007500000094
:103338002573000020250000752c0000257500006d
:103348002c250000752c0000257500002c25000098
:10335800752c0000257500002c250000752c000038
:10336800257500002c250000752c0000257500002f
:103378002c250000730000002573000020250000a4
:10338800752c0000257500002c250000752c000008
:103398002575000000250000733d0000257500001c
:1033a80000250000733d0000256400000025000092
:1033b8007379000073250000753d00002564000046
:1033c80000250000733d0000257500000a25000057
:1033d800733d0000257500000a250000733d0000bc
:1033e800257500000025000073250000753d0000cc
:1033f80025750000002500007320000025730000db
:103408002c25000075000000257300002025000011
:10341800752c0000257500002c25000073000000a5
:1034280074650000787400000000000001000000ce
:10343800149a0000040000003fb000001f000000c4
:103448000000000000000000735f000074650000c9
:10345800787400000000000012000000289a0000a4
:10346800060000003fb00000ff010000000000005f
:10347800000000006e7500006d62000065720000bb
:10348800000000000c0000003e9a0000060000004a
:103498003f3000001f0e0000000000000000000088
:1034a800584600004c4f0000415400000000000046
:1034b80011000000549a0000060000003f30000090
:1034c8001f320000000000000000000062750000cc
:1034d800747400006f6e000000000000020000001d
:1034e8006a9a000006000000bfb100001f0000003b
:1034f8000000000000000000707200006f6700000c
:1035080072650000737300002062000061720000a1
:103518000000000003000000809a00000b0000007b
:103528003700000038020000000000000000000022
:103538007069000063740000757200006500000087
:10354800040000009c9a000007000000070000002b
:103558001800000010000000000000006372000066
:103568006f7000000000000005000000b29a000023
:103578000400000007000000180000002000000000
:1035880000000000686f000074730000706f000096
:103598007400000006000000c69a00000700000042
:1035a80000000000180000000000000000000000fb
:1035b800746f0000756300006820000063610000fc
:1035c8007000000007000000dc9a000007000000ff
:1035d80000000000000000000000000000000000e3
:1035e80067610000756700006500000008000000c2
:1035f800f49a00000500000027010000187a000076
:10360800c10100000000000077610000766500003d
:10361800666f0000726d00000000000009000000e5
:10362800089b000008000000570700005800000031
:10363800000e000000000000736c000069640000c8
:1036480065720000000000000a000000209b0000d6
:103658000600000037080000188200000f00000074
:1036680000000000746900006d6500007200000031
:103678000b000000369b0000050000000000000061
:1036880080010000000000000000000076610000da
:1036980072690000616200006c65000000000000b3
:1036a8000d0000004a9b0000080000000000000018
:1036b8000002000000000000000000006475000027
:1036c800616c00002062000075740000746f0000d7
:1036d8006e0000000e000000629b00000b0000005e
:1036e800bfb100001f020000000000000000000041
:1036f80063680000656300006b200000626f0000d3
:10370800780000000f0000007c9b0000090000000a
:103718003700000018020000000000000000000050
:1037280071720000206300006f64000065000000f3
:1037380013000000949b0000070000003780000081
:10374800580000000000000000000000737700002f
:1037580069740000636800000000000014000000a5
:10376800aa9b000006000000ff810000580200002c
:103778000000000000000000676d00006f76000088
:103788000000000015000000c09b000004000000bd
:1037980007000000d8010000003000000000000011
:1037a800636f00006d6200006f200000626f000010
:1037b8007800000017000000d49b000009000000fa
:1037c800ffbb00007ab20000c9000000070000003b
:1037d800736500006c6500006374000020740000cd
:1037e800657800007400000018000000ec9b0000e1
:1037f8000b0000007f0100005a02000009000000d1
:1038080001000000534c000054650000787400006b
:103818000000000019000000069c000006000000df
:103828003f9000001f000000080100000800000091
:1038380072610000646900006f0000001000000061
:103848001c9c000005000000370000001802000062
:1038580000000000000000006461000074610000c6
:1038680020720000656300006f72000064000000b1
:103878001a000000309c00000c000000f71900003e
:103888007a0a0000090f00003d0000006669000088
:103898006c65000020620000726f00007773000002
:1038a80065720000000000001b0000004a9c000038
:1038b8000c000000bf0100007e420000080100006b
:1038c800c001000076690000646500006f00000018
:1038d80016000000669c00000500000007000000bc
:1038e800d8010000003000000000000065780000ea
:1038f80020700000696300007475000072650000a4
:10390800000000001c0000007a9c00000a00000073
:10391800070000001800000000000000010000007f
:10392800666900006c650000207300007472000076
:10393800656100006d0000001d000000949c0000ff
:103948000b00000000000000000200000000000062
:103958000000000061750000646900006f0000004d
:103968001e000000ae9c00000500000000000000e2
:10397800800300000030000000000000000000008c
:103988001a9a0000729a00008e9a0000a49a000009
:10399800b89a0000ce9a0000e69a0000fa9a000051
:1039a800129b0000289b00003c9b0000469a0000e8
:1039b800549b00006e9b0000869b0000229c000028
:1039c8005c9a0000309a00009c9b0000b29b0000ab
:1039d800c69b00006c9c0000de9b0000f89b00006a
:1039e8000e9c00003c9c0000589c0000869c000037
:1039f800a09c0000b49c0000647200006167000095
:103a08000061000070680000006500006666000044
:103a18006563000074000000666f00006e740000ab
:103a280000620000636f000000700000636f000018
:103a380000700000636f0000310000006263000046
:103a48006f32000000700000636f00003200000059
:103a5800706300006f33000000700000636f0000a7
:103a680030000000626300006f3100000078000041
:103a7800636500006e00000079630000656e000059
:103a880000700000770000007478000074000000e7
:103a9800697300006272000000730000706100002a
:103aa8007800000073700000617900000078000061
:103ab80000790000006400006972000000640000e2
:103ac8006973000000740000696d00000065000063
:103ad8006e000000766100006c0000006c6500005c
:103ae8006e67000074680000006600006f720000d6
:103af8006d61000074000000777300003000000062
:103b08007773000031000000777300003200000076
:103b18007769000064000000686900006700000021
:103b28006d61000078760000616c0000006d000097
:103b3800696e0000766100006c0000006368000098
:103b480000700000696300000070000069630000f5
:103b58006300000075700000006400006f770000cb
:103b68006e0000006c6500006674000000670000cd
:103b780064630000006700006477000000670000cd
:103b880064680000006c00006f6f000070000000a7
:103b98007669000064000000766900007300000088
:103ba8007473000077000000706100007468000002
:103bb8000071000074790000006d00006f6400005f
:103bc80065000000766100006c5f0000790000006d
:103bd8006f720000646500007200000076610000ea
:103be8006c5f000078000000666900006c740000db
:103bf8006572000000700000696300003100000079
:103c0800706900006332000000000000000000003e
:103c1800009d00000400000001000000059d000058
:103c28000300000002000000099d000006000000db
:103c380003000000109d00000400000004000000c4
:103c4800159d00000300000005000000199d0000fc
:103c580003000000060000001d9d00000400000095
:103c680007000000229d000004000000080000007a
:103c7800279d000004000000090000002c9d0000a2
:103c8800040000000a000000319d0000040000004c
:103c98000b000000369d0000040000000c0000002e
:103ca8003b9d0000040000000d000000409d000046
:103cb800040000000e000000459d00000200000006
:103cc8000f000000489d00000300000010000000e5
:103cd8004c9d00000400000011000000519d0000f0
:103ce8000400000012000000569d000004000000bf
:103cf800130000005b9d000001000000140000009c
:103d08005d9d000001000000150000005f9d00009f
:103d18000300000016000000639d0000030000007f
:103d280017000000679d0000030000001800000055
:103d38006b9d000002000000190000006e9d00004d
:103d4800030000001a000000729d00000600000039
:103d58001b000000799d0000060000001c00000008
:103d6800809d0000030000001d000000849d0000ed
:103d7800030000001e000000889d000003000000f2
:103d88001f0000008c9d00000300000020000000c0
:103d9800909d00000300000021000000949d000099
:103da80006000000220000009b9d000006000000a5
:103db80023000000a29d0000020000002400000073
:103dc800a59d00000300000025000000a99d00003b
:103dd8000400000026000000ae9d00000200000064
:103de80027000000b19d000004000000280000002a
:103df800b69d00000400000029000000bb9d0000e3
:103e0800030000002a000000bf9d0000030000001e
:103e18002b000000c39d0000030000002c000000e0
:103e2800c79d0000040000002d000000cc9d00008c
:103e3800030000002e000000d09d000003000000d9
:103e48002f000000d49d0000030000003000000097
:103e5800d89d00000400000031000000dd9d000036
:103e68000300000032000000e19d00000400000093
:103e780033000000e69d000005000000340000004b
:103e8800ec9d00000500000035000000f29d0000d8
:103e98000500000036000000f89d00000600000044
:103ea80037000000ff9d00000400000038000000fb
:103eb800049e000004000000627400006e5f0000b1
:103ec8007374000061720000740000007430000018
:103ed80000620000746e00005f730000746f0000e1
:103ee8007000000074310000006e0000756d000065
:103ef80062650000723000000078000030000000a9
:103f080067300000006a00003000000070300000d8
:103f180000710000300000006d30000000740000e7
:103f280063300000007a00003000000073300000a9
:103f38000068000030000000746d000030000000d0
:103f4800766100003000000062740000300000005c
:103f58006330000000710000723000000073000040
:103f680077300000006700006d300000006300003b
:103f78006230000000730000656c0000656300009b
:103f880074300000007300006c7400003000000002
:103f98007230000000640000617300006862000075
:103fa8006f6100007264000000640000617400002a
:103fb8006130000000660000627200006f77000048
:103fc8007365000072300000006600007330000066
:103fd80000760000300000007761000076300000b5
:103fe800006500007870000030000000706100007b
:103ff8006765000030000000525500004e4e00007a
:10400800494e0000470000000d0a000062750000dc
:10401800747400006f6e0000206e0000616d000077
:10402800652000003d250000732000006f6e000031
:104038002d70000072650000737300000d0a000007
:10404800000d00000a62000075740000746f000023
:104058006e2000006e6100006d650000203d0000cc
:104068002573000020720000656c00006561000087
:10407800736500000d0a0000000d00000a620000d0
:1040880075740000746f00006e2000006e610000ff
:104098006d650000203d00002573000020720000bf
:1040a800656c00006561000073650000720a00001d
:1040b800000d00000a62000075740000746f0000b3
:1040c8006e2000006e6100006d650000203d00005c
:1040d80025730000206f00006e2d0000726500003f
:1040e8006c65000061730000650d00000a000000a7
:1040f8005b4800004d490000204e00004f5400006e
:1041080049430000455d000020430000757200002f
:10411800726500006e7400002050000061670000a6
:1041280065200000494400003a2000002564000092
:104138000d0a0000005b0000484d00004920000007
:1041480044410000544100005d2000005661000019
:104158006c750000653a0000202500006c640000c2
:104168000a000000524500004144000059000000c8
:104178004e65000078740000696f00006e20000032
:104188004c69000062720000617200007920000032
:1041980056310000204a0000524700004d0d000033
:1041a800004800006f6c0000612000006d75000081
:1041b8006e6400006f200000256c00007500000090
:0841c800ffff0000ff000000f2
:020000040000fa
:1041d0000200fa00000f78001e0078000000e000e6
:1041e00002003a00200020000d0037001e00780079
:1041f000400090000000e00002003a003000200083
:10420000070037001e007800300090000000e0003a
:1042100002003a0040002000010037000000eb00df
:104220000080fa00000006000400fa001007980061
:104230001e009000100078000000e00002003a002c
:1042400060002000150037000000eb00000f780030
:104250000c0037001e009000900078001e007800cf
:104260000000400000804000100078001000900026
:104270000000e00002003a00a00020000700370024
:104280001e0fe8001e009000404090000080fb00e0
:104290009e0f5000efff3e000000eb000080fa0090
:1042a000000006000600fa00000f780011079800d1
:1042b000220798002e0090000000e00002003c0061
:1042c000b0002000070037002e00900080407800ea
:1042d0001e00900001417800800078001e007800e8
:1042e000470d07000080fa00000006000e00fa00eb
:1042f000200798003107980042079800540798005b
:10430000650798002e0090000000e00003003200d6
:104310003e0090000000e00002003a001000200083
:1043200034003700ce00900080032000808f5000c2
:1043300002003600800020002e0037002e00900082
:1043400010009000be0090009d0e07000004a20027
:104350000004e00002003200700020002500370059
:104360003e00900010007800ce00900087120700f9
:104370000004a2000004e0000200320090002000cf
:104380001c0037004e0090000a130700000f780051
:104390001e0078000000e00002003a0090002000bb
:1043a000140037001e007800900190003e0090003d
:1043b000200190005e009000ee009000809fbe0003
:1043c000831f7800821f7800a08c2900801f78004e
:1043d00001082000e09522004ef20700ea8757000e
:1043e000100798001e019000e19522002e00900019
:1043f000acff07000080fa00000006000c00fa0085
:10440000200798003107980042079800530798004a
:104410002e0090000000e000060032003e009000f8
:104420000000e000030032005e0090000000e000a9
:1044300002003a001000200034003700ce00900047
:1044400080032000808f5000020036008000200092
:104450002e0037002e00900010009000be0090004b
:10446000570e07000004a2000004e0000200320022
:1044700070002000250037003e00900010007800fa
:10448000ce009000411207000004a2000004e000ea
:1044900002003200900020001c0037004e00900007
:1044a000c4120700000f78001e0078000000e00032
:1044b00002003a0090002000140037005e009000d7
:1044c000100178001e007800900090003e009000df
:1044d00020009000821f7800811f7800801f7800e4
:1044e000408d2900801f780001082000e0952200ff
:1044f00008f20700e8875700100798001e01900097
:10450000e19522002e00900066ff07000080fa006f
:10451000000006000400fa00100798001e0090003a
:104520000000e00002003a001000200017003700f1
:104530001e0090003000900025ff0700000f78005b
:104540001e0078000000e000020032001e0078002b
:104550000e0037001e00900033ff0700000f7800a8
:104560001e0078000000e000020032001e0078000b
:10457000060037001e0090001000780090007800c0
:104580001e009000110098000000eb000080fa006f
:10459000000006000600fa00000f780011079800de
:1045a000424798004e4090000080fb008000eb00e6
:1045b0000002be000001eb009e0090001e0078008b
:1045c0004aff07000080fa00000006000600fa001b
:1045d000000f780011079800424798004e40900065
:1045e0000080fb008000eb000002be0012002000f3
:1045f0009e0090001e0078003cff07000080fa003b
:10460000000006000600fa00000f7800110798006d
:10461000424798004e409000e84f5000020036009c
:1046200080c0b300404798004e4090000080fb00df
:104630008000eb000002be00220020009e009000df
:104640001e00780029ff07000080fa000000060025
:104650000600fa00000f7800110798004247980002
:104660004e4090000080fb008000eb000002be0086
:10467000320020009e0090001e0078001bff070003
:104680000080fa00000006000600fa00000f780023
:1046900011079800220798002e0090008000eb0080
:1046a0000002be00420020009e0090001e00780024
:1046b0000eff07000080fa00000006000600fa0066
:1046c000000f780011079800220798002e00900034
:1046d0008000eb000002be00b20020009e009000af
:1046e0001e00780001ff07000080fa0000000600ad
:1046f0000600fa00000f78001107980022079800c2
:104700002e0090008000eb000002be00720020002e
:104710009e0090001e007800f4fe07000080fa0062
:10472000000006000600fa00000f7800110798004c
:10473000220798002e0090008000eb000002be00cf
:10474000520020009e0090001e007800e7fe070047
:104750000080fa00000006000600fa00000f780052
:1047600011079800220798002e0090008000eb00af
:104770000002be00a20020009e0090001e007800f3
:10478000dafe07000080fa00000006000600fa00ca
:10479000000f780011079800220798002e00900063
:1047a0008000eb000002be00620020009e0090002e
:1047b0001e007800cdfe07000080fa000000060011
:1047c0000600fa00000f78001107980022079800f1
:1047d0002e0090008000eb000002be00820020004e
:1047e0009e0090001e007800c0fe07000080fa00c6
:1047f000000006000600fa00000f7800110798007c
:10480000424798004e409000e24f500002003600b0
:1048100020c0b300404798004e4090000080fb004d
:104820008000eb000002be00c20020009e0090004d
:104830001e007800adfe07000080fa0000000600b0
:104840000600fa00000f7800110798004247980010
:104850004e409000e24f50000200360020c0b300ee
:10486000404798004e4090000080fb008000eb0025
:104870000002be00d20020009e0090001e007800c2
:104880009afe07000080fa00000006000600fa0009
:10489000000f780011079800424798004e409000a2
:1048a0000080fb008000eb000002be00e200200060
:1048b0009e0090001e0078008cfe07000080fa0029
:1048c000000006000600fa00000f780011079800ab
:1048d00022079800ae019000f20020009e00900098
:1048e0001e007800c5fe07000080fa0000000600e8
:1048f0000800fa00000f78001107980022079800be
:1049000033079800be019000020320009e00900033
:104910001e007800b9fe07000080fa0000000600c3
:104920000600fa00000f780011079800424798002f
:104930004e4090000080fb008000eb000002be00b3
:10494000020120009e0090001e00780067fe070014
:104950000080fa00000006000600fa00000f780050
:1049600011079800424798004e4090000080fb00dd
:104970008000eb000002be00120120009e009000ab
:104980001e00780059fe07000080fa0000000600b3
:104990000600fa00000f78001107980042479800bf
:1049a0004e4090000080fb008000eb000002be0043
:1049b000220120009e0090001e0078004bfe0700a0
:1049c0000080fa00000006000600fa00000f7800e0
:1049d00011079800220798002e0090008000eb003d
:1049e0000002be00320120009e0090001e007800f0
:1049f0003efe07000080fa00000006000600fa00f4
:104a0000000f780011079800220798002e009000f0
:104a10008000eb000002be00420120009e009000da
:104a20001e00780031fe07000080fa00000006003a
:104a30000600fa00000f780011079800424798001e
:104a40004e409000e44f50000200360040c0b300da
:104a5000404798004e4090000080fb008000eb0033
:104a60000002be00520120009e0090001e0078004f
:104a70001efe07000080fa00000006000600fa0093
:104a8000000f780011079800220798001e00900080
:104a90000000e00002003a00100020004200370051
:104aa0001e0090001000780010007800f20f5000f7
:104ab0000b003a002e009000e10f500002003e0073
:104ac0002000200020079800ae0090002003200066
:104ad000808f50000200360020032000200798003d
:104ae0001e0090001000780010007800ea0f5000bf
:104af00006003a00ae00900040062000808f500073
:104b00000200360040062000200798001e0090009a
:104b10001000780010007800e90f50000b003a00f8
:104b20002e009000e90f500002003e00a00020007f
:104b300020079800ae009000803e2000808f50003b
:104b400002003600803e2000200798001e009000e2
:104b50001000780010007800f50f50000b003a00ac
:104b60002e009000e90f500002003e00a00020003f
:104b700020079800ae00900040062000808f500073
:104b80000200360040062000200798002e0090000a
:104b90008000eb000002be00620120009e00900039
:104ba0001e007800d1fd07000080fa00000006001a
:104bb0000600fa00000f78001107980022079800fd
:104bc0001e0090000000e00002003a0010002000eb
:104bd000190037001e0090001000780010007800c7
:104be000eb0f500007003a00ae00900010032000c9
:104bf000808f500009003e0020032000200798000d
:104c000006003700ae009000f0042000808f5000b6
:104c100002003e0000052000200798002e009000b2
:104c20008000eb000002be00720120009e00900098
:104c30001e007800adfd07000080fa0000000600ad
:104c40000600fa00000f780011079800424798000c
:104c50004e4090000080fb008000eb000002be0090
:104c6000820120009e0090001e0078009ffd07003a
:104c70000080fa00000006000800fa00000f78002b
:104c80001107980022079800330798002e02900021
:104c9000be029000920120009e0090001e0078004d
:104ca00092fd07000080fa00000006000600fa00ee
:104cb000000f780011079800424798004e4090007e
:104cc000ef4f500002003600f0c0b300404798009c
:104cd0004e4090000080fb008000eb000002be0010
:104ce000a20120009e0090001e0078007ffd0700ba
:104cf0000080fa00000006000600fa00000f7800ad
:104d000011079800424798001e0090000000e00044
:104d100002003a0010002000120037001e00900030
:104d20001000780010007800ec0f500005003a00e9
:104d30004e409000e34f50000200360030c0b300f8
:104d4000404798004e4090000080fb008000eb0040
:104d50000002be00b20120009e0090001e007800fc
:104d600062fd07000080fa00000006000600fa005d
:104d7000000f780011079800424798001e0090002d
:104d80001000780010007800e80f500006003a008c
:104d9000ce40900000c8b30080cf50000200360023
:104da00000c8b300404798004e4090000080fb00d0
:104db0008000eb000002be00c20120009e009000b7
:104dc0001e00780049fd07000080fa000000060080
:104dd0000600fa00000f780011079800424798007b
:104de0001e0090001000780010007800e80f5000be
:104df00006003a00ce40900000c8b30080cf5000bb
:104e00000200360000c8b300404798004e409000b2
:104e10000080fb008000eb000002be00d2012000f9
:104e20009e0090001e00780030fd07000080fa0010
:104e3000000006000600fa00000f78001107980035
:104e4000424798001e009000100078001000780083
:104e5000e80f500006003a00ce40900000c8b300b2
:104e600080cf50000200360000c8b30040479800d1
:104e70004e4090000080fb008000eb000002be006e
:104e8000e20120009e0090001e00780017fd070040
:104e90000080fa00000006000600fa00000f78000b
:104ea00011079800424798004e4090000080fb0098
:104eb0008000eb000002be00420220009e00900035
:104ec0001e00780009fd07000080fa0000000600bf
:104ed0000600fa00000f780011079800424798007a
:104ee0004e4090000080fb008000eb000002be00fe
:104ef000720320009e0090001e007800fbfc07005b
:104f00000080fa00000006000600fa00000f78009a
:104f100011079800424798004e4090000080fb0027
:104f20008000eb000002be00820320009e00900083
:104f30001e007800edfc07000080fa00000006006b
:104f40000600fa00000f7800110798004247980009
:104f50004e4090000080fb008000eb000002be008d
:104f6000f20120009e0090001e007800dffc070088
:104f70000080fa00000006000600fa00000f78002a
:104f800011079800424798004e4090000080fb00b7
:104f90008000eb000002be00020220009e00900094
:104fa0001e007800d1fc07000080fa000000060017
:104fb0000600fa00000f78001107980022079800f9
:104fc0002e0090008000eb000002be0012022000c4
:104fd0009e0090001e007800c4fc07000080fa00cc
:104fe000000006000600fa00000f78001107980084
:104ff000220798002e0090008000eb000002be0007
:10500000220220009e0090001e007800b7fc0700de
:105010000080fa00000006000600fa00000f780089
:1050200011079800424798001e0090001000780079
:1050300010007800ea0f500006003a00ce409000c1
:1050400040c6b30080cf50000200360040c6b30017
:10505000404798001e009000100078001000780073
:10506000f80f500006003a00ce40900000c2b30096
:1050700080cf50000200360000c2b30040479800c5
:105080004e4090000080fb008000eb000002be005c
:10509000320220009e0090001e00780093fc070062
:1050a0000080fa00000006000800fa00000f7800f7
:1050b0001107980022079800330798001e009000ff
:1050c0001000780010007800e80f500016003a0039
:1050d0002e019000be019000f0ff2700010020008b
:1050e000800f5100818f590004003400f0ff270029
:1050f0000100200020079800310798002e01900041
:10510000be01900010002800f1ff2f00800f510019
:10511000818f590004003d0010002800f1ff2f008e
:1051200020079800310798002e029000be029000e0
:10513000620220009e0090001e0078006bfc0700b9
:105140000080fa00000006000800fa00000f780056
:105150001107980022079800330798001e0090005e
:105160001000780010007800e80f500016003a0098
:105170002e019000be019000f0ff270001002000ea
:10518000800f5100818f590004003400f0ff270088
:105190000100200020079800310798002e019000a0
:1051a000be01900010002800f1ff2f00800f510079
:1051b000818f590004003d0010002800f1ff2f00ee
:1051c00020079800310798002e029000be02900040
:1051d000720220009e0090001e00780043fc070031
:1051e0000080fa00000006000800fa00000f7800b6
:1051f0001107980022079800330798002e029000ac
:10520000be029000920220009e0090001e007800d6
:1052100036fc07000080fa00000006000800fa00d3
:10522000000f7800110798002207980033079800b4
:105230002e029000be029000a20220009e0090006c
:105240001e00780029fc07000080fa00000006001c
:105250000800fa00000f7800110798002207980054
:10526000330798002e029000be029000b202200088
:105270009e0090001e0078001cfc07000080fa00d1
:10528000000006000600fa001007980021079800a9
:105290001e0090000000e00002003a001000200014
:1052a000120037002e009000e80f50000200360078
:1052b000400120000d0037002e009000c200dd00ec
:1052c000c0632900008f40001e007800204090003d
:1052d0008080fb001e00780010007800010178003b
:1052e000800078001e009000eefb07000080fa00ae
:1052f000000006000800fa00200798003107980017
:105300002e0090000000e000030032003e009000fc
:105310000000e00002003a001000200013003700f7
:10532000e06f2900000f78003e0090009000900090
:105330001e00780010007800811f7800801f780020
:10534000f08d2900801f780001082000e0952200e0
:1053500070ee0700e6875700100798001e019000c6
:10536000e19522002e009000cefb07000080fa009d
:10537000000006000800fa00200798003107980096
:105380002e0090000000e000030032003e0090007c
:105390000000e00002003a00100020001300370077
:1053a00020702900000f78003e009000a0009000bf
:1053b0001e00780010007800811f7800801f7800a0
:1053c000608e2900801f780001082000e0952200ef
:1053d00050ee0700e6875700100798001e01900066
:1053e000e19522002e009000aefb07000080fa003d
:1053f000000006000a00fa00200798003107980014
:10540000024f98002e0090000000e00003003200e0
:105410003e0090000000e00002003a001000200072
:105420001600370060702900000f78000e489000c9
:105430000081fb003e009000a00090001e0078005c
:1054400010007800821f7800811f7800801f78008c
:10545000c08e2900801f780001082000e0952200fe
:105460002cee0700e8875700100798001e019000f7
:10547000e19522002e0090008afb07000080fa00d0
:10548000000006000c00fa00300798004107980061
